:03000000020E2BC2
:0C0E2B00787FE4F6D8FD758127020E7276
:040FBF00FEFDFBF741
:100FA900010D010410000000000A1581BDA2A89CD2
:050FB900C8C0AD8088F6
:100EB70075A889D288E4F580D2BB438901120F2A2D
:100EC7008F23E523F460177F007E007D487C431263
:100ED7000D8D851213851112851011852310741538
:100EE7002510F8E6F5A0C280D283120D817415256E
:100EF70011F8E6F5A0D280C283120D817415251270
:100F0700F8E6F5A0D280D283C282120D837415252C
:100F170013F8E6F5A0D280D283D282C281120D8562
:030F2700020EC4F3
:100F2A0078247C007D007BFF7A0F79BF7E007F04E6
:100F3A00120B35E4FF74242FF8E6F590D294D2957B
:100F4A00D296D297209408EF75F003A404FF2220CA
:100F5A009511EF64036009EF75F003A42402FF22E0
:100F6A007F0022209609EF75F003A42403FF220FC5
:050F7A00BF04C27FFF6F
:010F7F00224F
:0C0D8100D282D2817F007E007DA07C41E8
:100D8D007B557ADE790E783A1209091209E48F0B38
:100D9D008E0A8D098C08E47FFF7EFFFDFCAB0BAA4C
:100DAD000AA909A808D3120C494035E47BFF7AFF44
:100DBD00F9F8AF0BAE0AAD09AC08120BA98F14E40C
:100DCD00FFFEC3EF9514EE94005052E4F58CF58AB6
:100DDD00D28C308DFDC28DC28C0FBF00010E80E212
:100DED00E47FFF7EFFFDFCAB0BAA0AA909A808C38F
:100DFD00120C49501AC374FF950BF52274FF950A16
:100E0D00F521F58CE522F58AD28C308DFD800AE432
:0D0E1D00F58CF58AD28C308DFDC28DC28C13
:010E2A0022A5
:03000300020C5A92
:100C5A00C0E0C0F0C083C082C0D075D000C000C060
:100C6A0001C002C003C004C005C006C007E50D6488
:100C7A00016003020D5AAF13FE7C037DE8120B5B81
:100C8A00AC06AD07E51275F064A42DFDEC35F0FC59
:100C9A00E51175F00AA42DFFE5F03CFE7C00EF2576
:100CAA0010F50FEC3EF50EFCAD0FE41209AB7B55C7
:100CBA007ADE790E783A120800A804A905AA06ABCA
:100CCA0007E4FFFE7DFA7C431209091209E48F0B3F
:100CDA008E0A8D098C08E47FFFFEFDFCAB0BAA0A85
:100CEA00A909A808D3120C49402574FF950BF522CF
:100CFA0074FF950AF521750C015389F0758910E581
:100D0A0021F51FE522F520851F8D85208B803875FA
:100D1A000C02438920D3E50F9458E50E941B400436
:100D2A007409801DD3E50F94B8E50E940B400FE5C6
:100D3A000F9458E50E941B5005C374068003C374C0
:100D4A00FF950BF58BF58DD28ED2AB750D02800C0B
:100D5A00E50DB40207D2ABD28E750D01D007D006CD
:100D6A00D005D004D003D002D001D000D0D0D08298
:070D7A00D083D0F0D0E0327D
:03001B00020F8051
:100F8000C0E0C0D0C2AFC2ABC28EA2B7B392B7E5C9
:100F90000CB4010A851F8D85208BD28E8002D28EE3
:090FA000D2ABD2AFD0D0D0E032C8
:10080000EC4D6011E8497017ED33EC3304600DE4F2
:10081000FCFFFEFD22E933E8330470F8020A5012AF
:100820000A1B58046009E4CC2481500628500902B0
:100830000A5A284003020A57C0E0EB4A7044B980C4
:1008400006D0E0FB020A46EF4E701CBD8008EBFFAD
:10085000EAFEE9FD80EBE98DF0A4FEE5F00208E98F
:10086000E9CDF9EAFEEBFFEF89F0A4FCE5F0CE89D3
:10087000F0A42EFFE435F0CD89F0A42DFEE435F090
:100880008067EF4E7005BD80D780C3EF8BF0A4ACBE
:10089000F0EE8BF0A42CFCE435F0F8EF8AF0A42CF9
:1008A000E5F038FCE433CB8DF0A42CFCE5F03BF80C
:1008B000EE8AF0A42CFCE5F038F8E433CF89F0A4FC
:1008C0002CFCE5F038CF3400CE89F0A42FFFE5F002
:1008D0003EFEE433C98DF0A42EFEE5F039CD8AF05A
:1008E000A42FFFE5F03EFEE43DFD33D0E0FB5007D2
:1008F0000BBB000F020A5AEC2CFCEF33FFEE33FE69
:06090000ED33FD020A3296
:10090600020A5AEC5D046005E859047003020A50B5
:10091600120A1B580460F6EC4860F2EC7004FDFE07
:10092600FF22C860DB2481C85009C39860025006C4
:10093600020A579850CAF582E9294B4A7005AB82DC
:10094600020A4675F0007C1A7880C3EF9BEE9AED9A
:1009560099400DC3EF9BFFEE9AFEED99FDE842F03C
:10096600DC23ACF0D0E0FFD0E0FED0E0FDAB82208F
:10097600E7101BEB60BAEC2CFCEF33FFEE33FEED19
:1009860033FD020A32E803F830E705C0F075F000DF
:10099600EF2FFFEE33FEED33FD40B830E7C280AAFD
:1009A60075F020800E75F010800575F0087D007ECC
:1009B600007F003392D530D503120C3BEC33401048
:1009C600EF33FFEE33FEED33FDEC33FCD5F0ED22D5
:0E09D600E5F0247EA2D513CC92E7CDCEFF2211
:1009E400EDD2E7CD33EC3392D524814006E4FFFE0B
:1009F400FDFC22FCE4CFCECDCC24E0501174FF806A
:100A0400EDC3CC13CCCD13CDCE13CECF13CF047006
:070A1400F030D5DE020C3BBF
:100A1B00E9D2E7C933E833F892D5EDD2E7CD33EC21
:070A2B0033FC5002B2D5229A
:100A3200EC30E7100FBF000C0EBE00080DBD000425
:100A42000BEB6014A2D5EB13FCED92E7FD2274FFD1
:100A5200FCFDFEFF22E480F8A2D574FF13FC7D802A
:030A6200E480EF3E
:100E3700020EB7E493A3F8E493A34003F68001F20C
:100E470008DFF48029E493A3F85407240CC8C333BC
:100E5700C4540F4420C8834004F456800146F6DF8B
:100E6700E4800B0102040810204080900FA9E47E63
:100E7700019360BCA3FF543F30E509541FFEE49380
:100E8700A360010ECF54C025E060A840B8E493A347
:100E9700FAE493A3F8E493A3C8C582C8CAC583CA72
:100EA700F0A3C8C582C8CAC583CADFE9DEE780BE2A
:010FBE000032
:100A6500E709F608DFFA8046E709F208DFFA803E73
:100A750088828C83E709F0A3DFFA8032E309F60860
:100A8500DFFA8078E309F208DFFA807088828C83C8
:100A9500E309F0A3DFFA806489828A83E0A3F6087C
:100AA500DFFA805889828A83E0A3F208DFFA804C56
:100AB50080D280FA80C680D4806980F2803380102D
:100AC50080A680EA809A80A880DA80E280CA803396
:100AD50089828A83ECFAE493A3C8C582C8CCC5830E
:100AE500CCF0A3C8C582C8CCC583CCDFE9DEE780DE
:100AF5000D89828A83E493A3F608DFF9ECFAA9F05D
:100B0500EDFB2289828A83ECFAE0A3C8C582C8CCB2
:100B1500C583CCF0A3C8C582C8CCC583CCDFEADECB
:100B2500E880DB89828A83E493A3F208DFF980CC2D
:100B350088F0EF60010E4E60C388F0ED2402B40426
:100B45000050B9F582EB2402B4040050AF232345CD
:060B55008223900AB57333
:100B5B00EF8DF0A4A8F0CF8CF0A428CE8DF0A42EAE
:020B6B00FE2268
:100B6D0075F008758200EF2FFFEE33FECD33CDCC3F
:100B7D0033CCC58233C5829BED9AEC99E5829840C2
:100B8D000CF582EE9BFEED9AFDEC99FC0FD5F0D69F
:100B9D00E4CEFBE4CDFAE4CCF9A88222B800C1B9C9
:100BAD000059BA002DEC8BF084CFCECDFCE5F0CB07
:100BBD00F97818EF2FFFEE33FEED33FDEC33FCEB40
:100BCD0033FB10D703994004EB99FB0FD8E5E4F9FB
:100BDD00FA227818EF2FFFEE33FEED33FDEC33FCE8
:100BED00C933C910D7059BE99A4007EC9BFCE99ADC
:100BFD00F90FD8E0E4C9FAE4CCFB2275F010EF2F21
:100C0D00FFEE33FEED33FDCC33CCC833C810D70720
:100C1D009BEC9AE899400AED9BFDEC9AFCE899F85B
:0E0C2D000FD5F0DAE4CDFBE4CCFAE4C8F922EE
:0E0C3B00C3E49FFFE49EFEE49DFDE49CFC22CA
:100C4900EB9FF5F0EA9E42F0E99D42F0E89C45F001
:010C59002278
:00000001FF
